:020000040800F2
:1000000000000120A90800088108000883080008F2
:10001000850800088708000889080008000000001B
:100020000000000000000000000000008B08000835
:100030008D080008000000008F08000891080008E3
:10004000F9080008F9080008F9080008F90800088C
:10005000F9080008F9080008F9080008F90800087C
:10006000F9080008F9080008F9080008F90800086C
:10007000F9080008F9080008F9080008F90800085C
:10008000F9080008F9080008F9080008F90800084C
:10009000F9080008F9080008F9080008F90800083C
:1000A000F9080008F9080008F9080008F90800082C
:1000B000F9080008F9080008F9080008F90800081C
:1000C000F9080008F9080008F9080008F90800080C
:1000D000F9080008F9080008F9080008F9080008FC
:1000E000F9080008F9080008F9080008F9080008EC
:1000F000F9080008F9080008F9080008F9080008DC
:10010000F90800080000000000000000F9080008DD
:10011000F9080008F9080008F9080008F9080008BB
:10012000F9080008F9080008F9080008F9080008AB
:10013000F9080008F90800080000000000000000AD
:10014000F9080008F9080008F90800080000000094
:10015000000000000000000000000000000000009F
:10016000F9080008F9080008F9080008F90800086B
:10017000F9080008F9080008F9080008F90800085B
:10018000F9080008F908000800000000000000005D
:04019000F908000862
:1001940010B5054C237833B9044B13B10448AFF3BD
:1001A40000800123237010BD0C000020000000001B
:1001B4000818000808B5034B1BB103490348AFF303
:1001C400008008BD0000000010000020081800088E
:1001D40013B50024019400F067FAADF80040BDF8AF
:1001E40000309BB2312B0ED900F065FA01AA04212C
:1001F400722000F067FA019840F6C413C01A18BFC1
:10020400012002B010BDADF80240BDF802309BB22F
:10021400312B06D9BDF8003001339BB2ADF8003064
:10022400DDE7019B01330193BDF8023001339BB23A
:10023400ADF80230E9E713B5044605238DF807301D
:1002440000F032FA2378A3F1A202534253418DF80D
:10025400073000F030FA0DF107020121722000F09E
:1002640031FA002002B010BD7FB5164B0446186861
:100274009B88ADF80C30012302908DF8073000F014
:1002840013FA9DF80730611E02A80434002211F805
:10029400016F10F8015BAE421CBF01220023A14292
:1002A400F5D10AB18DF8073000F005FA01210DF1FE
:1002B400070272208DF8071000F004FA002004B041
:1002C40070BD00BF2018000807B5012000F0E0F958
:1002D400002000F0D1F900238DF8073000F0E4F994
:1002E40000F0E9F99DF80730022BFBD1012000F062
:1002F400C3F9012000F0C0F9012000F0BDF901208C
:1003040000F0BAF9012000F0B7F9012000F0B4F9C7
:10031400012000F0B1F9012000F0AEF9012000F055
:10032400ABF9722000F098F9422000F095F95220C0
:1003340000F092F9452000F08FF9412000F08CF98B
:100344004B2000F089F94F2000F086F9552000F089
:1003540083F9542000F080F90A2000F07DF901208F
:1003640000F08AF9012000F087F9012000F084F9F7
:10037400012000F081F9012000F07EF9012000F055
:100384007BF9012000F078F9012000F075F90020D4
:1003940003B05DF804FB10B5A6B02422002107A821
:1003A40001F028FA1422002101A801F023FA002107
:1003B400582210A801F01EFA0223069301241023E8
:1003C40006A8CDE9094300F00FFC014608B172B656
:1003D400FEE70F23CDE90130CDE90300059001A824
:1003E40000F0C4FE08B172B6FEE7129010A8109493
:1003F40000F068FF08B172B6FEE726B010BD000039
:1004040000B589B000F09CFAFFF7C5FF1422002163
:1004140003A801F0EFF9384B38485A6942F4002236
:100424005A615A6902F400220192019A5A6942F40B
:1004340000325A615B6903F40033029300224FF4E3
:10044400C041029B00F0CAFB00224FF480514FF0E0
:10045400904000F0C3FB00244FF4C043012527481B
:1004640003A9CDE90335CDE9054400F0E5FA4FF4DD
:10047400805303A94FF09040CDE90335CDE90544FD
:1004840000F0DAFA00F0B8F8722000F0E5F8522033
:1004940000F0E2F8452000F0DFF8532000F0DCF82B
:1004A400452000F0D9F8542000F0D6F8202000F0C0
:1004B400D3F8202000F0D0F8202000F0CDF80A2056
:1004C40000F0CAF800F082F80D4A2146672000F0D7
:1004D40079F80C4A2946632000F074F80A4A052189
:1004E400702000F06FF8094A2146692000F06AF88C
:1004F40000F046F9FCE700BF001002400008004885
:10050400D50100083B0200086D020008CD02000876
:1005140001207047F0B500254F1C854201DB002007
:1005240021E017F8154011F81530A4F13006F6B2A1
:10053400092E0CD81670A3F13004E6B2092E15D892
:10054400137843EA0413137001350132E5E7A4F18B
:100554004106052E02D8373C1470ECE7A4F161067D
:10056400052E01D90120F0BD573CF5E7A3F1410464
:10057400052C02D8A3F13704E2E7A3F16104052CAA
:10058400F0D81478573B44EA0313DCE7F0B50B4E7C
:1005940034680F2C0FDCFF290DD8094F07EB041525
:1005A4004FEA041CC5E90112013407F80C002B734F
:1005B40034600020F0BD0120FCE700BFAC01002046
:1005C400280000200023FFF7E1BF000008B5074A18
:1005D40000217620FFF7F6FF054A7720FFF7F2FFA8
:1005E400BDE80840034A7920FFF7ECBF1505000871
:1005F4002D07000809070008084B09494FF4E132A8
:10060400C3E9001200220C21C3E90222C3E9051246
:10061400C3E907221A615A62704700BF280100200B
:100624000038014037B50A4D0A4C41F288330122A3
:100634000DF10701284601F043F818B99DF80700A9
:1006440003B030BD236A43F008032362EDE700BF23
:10065400280100200038014007B541F288338DF8A5
:10066400070001220DF10701024800F0CFFF03B09B
:100674005DF804FB2801002028B1002203484FF450
:10068400005100F0ABBA0122F8E700BF00080048AF
:1006940028B1002203484FF4804100F09FBA0122A0
:1006A400F8E700BF0008004801224FF480514FF0E2
:1006B400904000F093BA00224FF480514FF09040E4
:1006C40000F08CBAF8B514460E46FFF7C5FF0C4F80
:1006D400651EC4F1010463199E4204DCBDE8F840C0
:1006E4000A20FFF7B9BF15F8013F1B09F85CFFF7B3
:1006F400B3FF2B7803F00F03F85CFFF7ADFFEAE7D5
:100704002618000807B5074B0DF107021B688DF882
:10071400073001217220FFF7D5FF002003B05DF8F8
:1007240004FB00BFAC01002070B5134B134C1968D7
:100734008CB0CDB20020C3B2AB4200F1010009DBA2
:1007440001EB41016A46C9B27220FFF7BBFF0020EA
:100754000CB070BD03EB43021E0130326A4404EB5B
:100764000313A65D02F8306C5E681B7B02F82F6CE5
:1007740002F82E3CDFE700BFAC0100202800002077
:100784002DE9F041ADF5427DFFF74CFF2D4B2E498D
:100794001A6800239A4204DC07D10DF5427DBDE8B6
:1007A400F0811C01645C84423FD1274D05EB0314A6
:1007B4001E01237BDB0714D500238DF80830FFF7D7
:1007C40031FF8DF80801FFF72DFF02AA8DF809010A
:1007D40042A90120FFF79EFE0028DED19DF80830D3
:1007E400636042AF002405EB0608D8F80430B4EB8C
:1007F400430F1CD3FFF716FF0A2801D00D28CCD1D4
:10080400354402AA6C6842A92046FFF783FE0028FB
:10081400C3D1E1B2AB6802A8984701AA8DF80400DD
:1008240001217A20FFF74EFFB7E70133B2E7FFF764
:10083400F9FE0A28B1D00D28AFD007F8010B013416
:10084400D3E700BFAC010020280000200A4B9A69BE
:1008540042F001029A619A6982B002F001020092A8
:10086400009ADA6942F08052DA61DB6903F080535E
:100874000193019B02B0704700100240FEE7FEE7BF
:10088400FEE7FEE7FEE770477047704700F06AB87E
:10089400034AD2F8883043F47003C2F888307047B2
:1008A40000ED00E0DFF834D00D480E490E4A002375
:1008B40002E0D458C4500433C4188C42F9D30B4A10
:1008C4000B4C002301E013600432A242FBD3FFF778
:1008D400DFFF00F06BFFFFF793FDFEE70000012050
:1008E400000000200C000020701800080C000020FC
:1008F400B4010020FEE7000038B50E4A0E4B054651
:1009040018784FF47A73B3FBF0F31068B0FBF3F08C
:1009140000F07EF8044658B90F2D09D8024629463E
:100924004FF0FF3000F042F8044B20461D6038BD04
:100934000120FCE700000020040000200800002043
:10094400074A08B5136843F010031360032000F04E
:100954001BF80F20FFF7D0FFFFF778FF002008BD3A
:1009640000200240034A044B11681B780B441360B7
:10097400704700BFB001002004000020014B18683C
:10098400704700BFB00100200749CA6822F4E06242
:100994000302120403F4E063120C134343F0BF6335
:1009A40043F40033CB60704700ED00E0164B30B5E4
:1009B400DC68C4F30224C4F10705231D042D28BFF9
:1009C4000425062B4FF0FF338CBF033C002403FAAD
:1009D40005F521EA0501A34022EA0302A14000280B
:1009E40041EA0203ACBF00F16040084A4FEA031336
:1009F400B8BF00F00F00DBB2AABF00F5614013548A
:100A040080F8003330BD00BF00ED00E014ED00E0DD
:100A14000138B0F1807F0BD24FF0E023054A5861D2
:100A2400F02182F823100020072298611A61704790
:100A34000120704700ED00E02DE9F74FDFF89891B1
:100A4400634C00230A6832FA03F502D103B0BDE80F
:100A5400F08F4FF0010E0EFA03FE1EEA020200F0C0
:100A6400A9804E6806F003054FEA43084FF0030CD3
:100A74006F1E0CFA08FC012F6FEA0C0C34D887683F
:100A840007EA0C0ACF6807FA08F747EA0A078760FB
:100A9400476827EA0E0EC6F300179F4047EA0E0781
:100AA4004760C76807EA0C0E8F6807FA08F747EA39
:100AB4000E07022DC76019D14FEAD30A00EB8A0A48
:100AC40003F0070BDAF820704FEA8B0B4FF00F0E90
:100AD4000EFA0BFE27EA0E0E0F6907FA0BF747EA28
:100AE4000E07CAF8207001E0032DDAD1076805FA71
:100AF40008F507EA0C072F4316F4403F076059D066
:100B0400D9F8185045F00105C9F81850D9F818500B
:100B140023F0030707F1804705F0010507F5803747
:100B2400019503F0030E019DBD684FEA8E0E4FF050
:100B34000F0C0CFA0EFCB0F1904F25EA0C0C3BD0D4
:100B4400244DA8423AD005F58065A84238D005F571
:100B54008065A84236D005F58065A84234D005F5F5
:100B64008065A84232D005F58065A8420CBF0625F1
:100B7400072505FA0EF545EA0C05BD602568D7433F
:100B840016F4803F0CBF3D4015432560656816F49C
:100B9400003F0CBF3D4015436560A56816F4801FF7
:100BA4000CBF3D401543A560E568B60254BF3D4007
:100BB4001543E560013345E70025DAE70125D8E769
:100BC4000225D6E70325D4E70425D2E70525D0E797
:100BD4000004014000040048001002400AB1816191
:100BE40070478162704700002DE9F74305460028ED
:100BF40038D00368DF0711D42B689E0700F18B807F
:100C04002B681C0700F1FE802B68580700F14C810B
:100C1400A869002840F0DA81002047E0A04C63680E
:100C240003F00C03042B0AD0636803F00C03082BB5
:100C34001AD1636803F4C033B3F5803F14D14FF481
:100C4400003393FAA3F2216893FAA3F3B3FA83F37C
:100C540003F01F03012202FA03F30B42CCD06B68AA
:100C6400002BC9D1012021E06B68B3F5803F20D16E
:100C7400236843F480332360FFF780FE4FF400378A
:100C840006464FF0010897FAA7F3226897FAA7F3EC
:100C9400B3FA83F303F01F0308FA03F31342ABD14F
:100CA400FFF76CFE831B642BEDD9032003B0BDE872
:100CB400F0830BBB236823F480332360236823F47D
:100CC40080232360FFF75AFE4FF4003706464FF0A7
:100CD400010897FAA7F3226897FAA7F3B3FA83F304
:100CE40003F01F0308FA03F3134285D0FFF746FE0F
:100CF400831B642BEDD9D8E7B3F5A02F236803D168
:100D040043F480232360B3E723F480332360236810
:100D140023F48023AFE7624C636813F00C0F0AD00E
:100D2400636803F00C03082B24D1636803F4C03315
:100D3400B3F5004F1ED1022393FAA3F2216893FA6C
:100D4400A3F3B3FA83F303F01F03012202FA03F3BC
:100D54000B4202D0EB68934284D12168F82393FAC2
:100D6400A3F3B3FA83F22B69934021F0F8021343FF
:100D7400236045E7EA6801260AB396FAA6F3B3FAB4
:100D840083F303F1845303F584139B004FF00208AB
:100D94001E60FFF7F3FD074698FAA8F3226898FA55
:100DA400A8F3B3FA83F303F01F0306FA03F3134221
:100DB400D3D1FFF7E3FDC31B022BEDD975E796FAF8
:100DC400A6F3B3FA83F303F1845303F584139B006E
:100DD4004FF002081A60FFF7D1FD074698FAA8F30E
:100DE400226898FAA8F3B3FA83F303F01F0306FA10
:100DF40003F313423FF404AFFFF7C0FDC31B022B00
:100E0400ECD952E76A69264E264901241AB394FAAA
:100E1400A4F3B3FA83F30B449B0002271C60FFF78F
:100E2400ADFD804697FAA7F397FAA7F397FAA7F3CD
:100E3400726A97FAA7F3B3FA83F303F01F0304FA71
:100E440003F313427FF4E0AEFFF798FDA0EB080331
:100E5400022BE7D929E794FAA4F3B3FA83F30B44FA
:100E64009B0002271A60FFF789FD804697FAA7F3D3
:100E740097FAA7F397FAA7F3726A97FAA7F3B3FA64
:100E840083F303F01F0304FA03F313423FF4BCAEED
:100E9400FFF774FDA0EB0803022BE7D905E700BFB9
:100EA4000010024020819010984CE369D90033D49B
:100EB400E36943F08053E361E36903F080530193F2
:100EC400019B0126924F3B68DA0527D5AB68012BBD
:100ED40035D1236A43F001032362FFF74FFD022754
:100EE40080464FF0010997FAA7F397FAA7F3002B6E
:100EF40064D0226A97FAA7F3B3FA83F303F01F03CB
:100F040009FA03F3134250D0002E3FF481AEE36993
:100F140023F08053E3617BE60026D3E73B6843F488
:100F240080733B60FFF72AFD80463B68DB05CDD428
:100F3400FFF724FDA0EB08006428F6D9B5E633BB1F
:100F4400236A23F001032362236A23F00403236248
:100F5400FFF714FD022780464FF0010997FAA7F323
:100F640097FAA7F373B3226A97FAA7F3B3FA83F352
:100F740003F01F0309FA03F31342C5D0FFF7FEFC85
:100F840041F28833A0EB08009842E7D98DE6052B9F
:100F9400236A03D143F0040323629AE723F0010395
:100FA4002362236A23F0040396E7FFF7E7FC41F288
:100FB4008833A0EB0800984295D976E697FAA7F310
:100FC400626A97E797FAA7F3626ACDE74F4C6368C2
:100FD40003F00C03082B00F0818002284FF080738B
:100FE40057D193FAA3F3B3FA83F303F1845303F5CC
:100FF40084139B0000221A60FFF7C0FC4FF00078B6
:101004000746012698FAA8F3226898FAA8F3B3FAD7
:1010140083F303F01F0306FA03F3134233D1E36AA5
:101024006A6A23F00F031343E362D5E90713626886
:101034000B4322F47612134363604FF0807393FAE8
:10104400A3F3B3FA83F303F1845303F584139B00EE
:1010540001271E60FFF792FC4FF00076054696FAD2
:10106400A6F3226896FAA6F3B3FA83F303F01F03F8
:1010740007FA03F313427FF4CFADFFF77FFC401B65
:101084000228ECD911E6FFF779FCC31B022BB9D96E
:101094000BE693FAA3F3B3FA83F303F1845303F552
:1010A40084139B0000221A60FFF768FC4FF000765F
:1010B4000546012796FAA6F3226896FAA6F3B3FA30
:1010C40083F303F01F0307FA03F313423FF4A4ADC1
:1010D400FFF754FC401B0228ECD9E6E501283FF455
:1010E400E5AD6368E969E26A03F4C03088427FF4DD
:1010F400B9AD296A03F470138B427FF4B3AD02F0E7
:101104000F036A6A93423FF487ADABE500100240D7
:101114000070004011494B6803F00C02082A1AD1F0
:101124004FF4701292FAA2F20F20B2FA82F2C96A54
:1011340090FAA0F003F47013D340094AB0FA80F097
:1011440001F00F01D35CC1400648415C0648B0FB86
:10115400F1F0584370470448704700BF0010024044
:10116400461800085618000800127A002DE9F041CC
:101174000D46044610B90120BDE8F0814C4A1368BD
:1011840003F007038B422ED32268910736D4D2078B
:101194003CD4474A136803F00703AB4274D822686F
:1011A400444D12F0040F7BD1130706D56B682269F6
:1011B40023F4605343EAC2036B60FFF7ABFF6B6831
:1011C400F02292FAA2F2B2FA82F203F0F003D340D0
:1011D400394AD35CD840394B1860394B1868FFF74B
:1011E4008BFB0020C8E7136823F007030B4313604D
:1011F400136803F007038B42BDD1C5E72D49A068EE
:101204004B6823F0F00303434B60C0E76268294E48
:10121400012A26D14FF4003393FAA3F1316893FAEB
:10122400A3F3B3FA83F303F01F0302FA03F30B42AD
:10123400A1D0736823F003031A437260FFF79EFB87
:1012440041F2883807467368626803F00C03B3EB15
:10125400820F9ED0FFF792FBC01B4045F3D90320B9
:101264008AE7022A0CBF4FF00073022393FAA3F11A
:10127400306893FAA3F3B3FA83F303F01F03012155
:1012840001FA03F30342D3E7136823F007032B4364
:101294001360136803F00703AB427FF46CAF7EE77F
:1012A4006B68E16823F4E0630B436B607CE700BF89
:1012B4000020024000100240361800080000002000
:1012C4000800002003682DE9F743D903044623D519
:1012D4009A4DEB69DA0000F1D980EB6943F0805351
:1012E400EB61EB6903F080530193019B0126944F5A
:1012F4003B68DB0540F1CC802B6A13F4407340F06B
:10130400DC802B6A626823F4407313432B621EB1A2
:10131400EB6923F08053EB612368DA0706D587492C
:10132400A0680A6B22F0030202430A639F0706D5F2
:101334008249E0680A6B22F4403202430A635E0782
:1013440006D57E4920690A6B22F4402202430A63CF
:101354009D0606D57949E0690A6B22F01002024322
:101364000A63980306D57549606D4A6822F48002C1
:1013740002434A60590606D57049206A0A6B22F076
:10138400200202430A635A0306D56C49606A0A6B59
:1013940022F0400202430A631F0706D567496069C9
:1013A4000A6B22F4401202430A63DE0606D563493F
:1013B400A0690A6B22F4400202430A639D0506D524
:1013C4005E49206B4A6822F4000202434A60180610
:1013D40006D55A49A06ACA6A22F4F8720243CA625C
:1013E400D90506D55549E06ACA6A22F478520243FF
:1013F400CA62DA0406D55149606B0A6B22F4807222
:1014040002430A639F0406D54C49206C0A6B22F4FC
:10141400007202430A63DE0206D54849A06B0A6BD8
:1014240022F0807202430A639D0206D54349E06BB1
:101434000A6B22F0007202430A63580206D53F4940
:10144400606C0A6B22F4806202430A63190206D5B7
:101454003A49A06C0A6B22F4006202430A63DA017F
:1014640006D53649E06C0A6B22F4005202430A6343
:1014740013F000731FBF314A216D136B23F4004333
:101484001DBF0B4313630020184613E000262EE70C
:101494003B6843F480733B60FFF770FA80463B6817
:1014A400D8053FF529AFFFF769FAA0EB08006428D7
:1014B400F5D9032003B0BDE8F083626802F44072FA
:1014C4009A423FF41EAF296A4FF4803321F44070EE
:1014D40093FAA3F2DFF86CC0B2FA82F2624492008B
:1014E4000127176093FAA3F3B3FA83F363449B00D1
:1014F4000022C9071A6028627FF503AFFFF73EFA9E
:101504004FF00208814698FAA8F398FAA8F3DBB1E1
:101514002A6A98FAA8F3B3FA83F303F01F0307FACD
:1015240003F313427FF4EDAEFFF728FA41F2883358
:10153400A0EB09009842E6D9BBE700BF00100240C7
:10154400007000400081901098FAA8F36A6AE0E7FE
:101554002DE9F041DDF8188004460E4615461F4675
:101564002268D36936EA03030CBF01230023AB428C
:1015740001D0002025E0B8F1FF3FF2D0FFF7FEF9DB
:10158400C01B4045206802D8B8F1000F1BD150E8B9
:10159400003F23F4D07340E80032002AF7D100F171
:1015A400080353E8003F23F0010300F1080141E878
:1015B4000032002AF3D12023A367E36784F8742060
:1015C4000320BDE8F08103685A07C9D5C3691B0528
:1015D400C6D54FF40063036250E8003F23F4D07390
:1015E40040E80032002AF7D100F1080353E8003F35
:1015F40023F0010300F1080141E80032002AF3D18D
:101604002023A367E367C4F88030D7E72DE9FF41BF
:101614009846836F202B04460E4617464ED1002968
:101624004AD0002A48D090F87430012B46D00123C8
:1016340080F8743000252123C0F880508367FFF7B9
:101644009DF9A268A4F85070B2F5805F0346A4F82F
:10165400527003D122690AB935461646002284F82D
:101664007420B4F85220CDF8008092B23AB94021E7
:101674002046FFF76DFF50B92023A36708E000223E
:10168400802120460393FFF763FF039B18B10320D7
:1016940004B0BDE8F08121685EB935F8022BC2F3CD
:1016A40008020A85B4F85220013A92B2A4F85220F2
:1016B400D7E716F8012BF4E70120E9E70220E7E772
:1016C4002DE9F7431F46C36F202B04460D461646EB
:1016D40068D1002964D0002A62D090F87430012BBC
:1016E40060D0012380F874304FF000082223C0F842
:1016F4008080C367C0F86080FFF740F9A368A4F84E
:101704005860B3F5805F8146A4F85A601CD1226901
:10171400C2B940F2FF12A4F85C20B3F5805FB4F8BC
:101724005C8022D1236903BB2E461D46002384F826
:101734007430B4F85A2090B2C8B92023E36703B0D8
:10174400BDE8F083FF22E6E723B92269002AF9D035
:101754007F22E0E7B3F1805F04D12269002AF7D049
:101764003F22D8E7A4F85C80D7E70026DEE700979D
:101774004B46002220212046FFF7EAFEA0B9236849
:101784009B8C08EA030345B926F8023BB4F85A20B7
:10179400013A92B2A4F85A20CBE705F8013BF5E7E9
:1017A4000120CCE70220CAE70320C8E770B50D4D3D
:1017B4000D4C641BA4100026A64209D10B4D0C4C01
:1017C40000F020F8641BA4100026A64205D170BDC9
:1017D40055F8043B98470136EEE755F8043B984723
:1017E4000136F2E76818000868180008681800084D
:1017F4006C18000802440346934200D1704703F872
:10180400011BF9E7F8B500BFF8BC08BC9E46704759
:0C181400F8B500BFF8BC08BC9E46704749
:10182000746F756368003031323334353637383988
:101830004142434445460000000000000000010210
:1018400003040607080902030405060708090A0B32
:101850000C0D0E0F10100102030405060708090AFB
:081860000B0C0D0E0F1000002F
:04186800B9010008BA
:04186C0095010008DA
:0C18700000127A000100000010000000CF
:04000005080008A93E
:00000001FF
