:020000040800F2
:1000000000000120710C0008F90B0008FF0B00082C
:10001000050C00080B0C0008110C00080000000083
:10002000000000000000000000000000170C0008A5
:10003000250C000800000000330C0008410C0008EB
:10004000C10C0008C10C0008C10C0008C10C00085C
:10005000C10C0008C10C0008C10C0008C10C00084C
:10006000C10C0008C10C0008C10C0008C10C00083C
:10007000C10C0008C10C0008C10C0008C10C00082C
:10008000C10C0008C10C0008C10C0008C10C00081C
:10009000C10C0008C10C0008C10C0008C10C00080C
:1000A000C10C0008C10C0008C10C0008C10C0008FC
:1000B000C10C0008C10C0008C10C0008C10C0008EC
:1000C000C10C0008C10C0008C10C0008C10C0008DC
:1000D000C10C0008C10C0008C10C0008C10C0008CC
:1000E000C10C0008C10C0008C10C0008C10C0008BC
:1000F000C10C0008C10C0008C10C0008C10C0008AC
:10010000C10C00080000000000000000C10C000845
:10011000C10C0008C10C0008C10C0008C10C00088B
:10012000C10C0008C10C0008C10C0008C10C00087B
:10013000C10C0008C10C0008000000000000000015
:10014000C10C0008C10C0008C10C00080000000030
:10015000000000000000000000000000000000009F
:10016000C10C0008C10C0008C10C0008C10C00083B
:10017000C10C0008C10C0008C10C0008C10C00082B
:10018000C10C0008C10C00080000000000000000C5
:04019000C10C000896
:1001940010B5054C237833B9044B13B10448AFF3BD
:1001A40000800123237010BD1C000020000000000B
:1001B400BC36000808B5034B1BB103490348AFF331
:1001C400008008BD0000000020000020BC360008AC
:1001D40080B400AF72B600BFFEE7000080B500AF88
:1001E400144B154A1A60134B4FF4E1325A60114B09
:1001F40000229A600F4B0022DA600E4B00221A6133
:100204000C4B0C225A610B4B00229A61094B0022C1
:10021400DA61084B00221A62064B00225A62054832
:1002240002F0E4FC0346002B01D0FFF7D1FF00BF2E
:1002340080BD00BF380000200038014080B582B086
:1002440000AF05E00A4B1B6A094A43F00803136236
:10025400F91D41F288330122064802F0A9FD034644
:10026400002BEFD1FB7918460837BD4680BD00BF8F
:10027400003801403800002080B584B000AF034648
:10028400FB71FB79FB7307F10F0141F28833012203
:10029400034802F0F9FC00BF1037BD4680BD00BF23
:1002A4003800002080B582B000AF78607B68002BF6
:1002B40006D000224FF40051064800F0D7FF05E0B5
:1002C40001224FF40051034800F0D0FF00BF08376B
:1002D400BD4680BD0008004880B582B000AF78609C
:1002E4007B68002B06D000224FF48041064800F0C2
:1002F400BDFF05E001224FF48041034800F0B6FF42
:1003040000BF0837BD4680BD0008004880B500AF77
:1003140001224FF480514FF0904000F0A7FF00BF3E
:1003240080BD80B500AF00224FF480514FF0904063
:1003340000F09CFF00BF80BD80B584B000AF786042
:100344000B46FB700023BB60FFF7E0FF0023FB813B
:1003540013E00023BB8107E0BB680133BB60BB89AA
:100364009BB201339BB2BB81BB899BB2312BF3D9C6
:10037400FB899BB201339BB2FB81FB899BB2312B7E
:10038400E7D9FFF7CEFF07F108031A4604217220CC
:1003940000F092FBBB6840F6C412934214BF0123E1
:1003A4000023DBB218461037BD4680BD80B584B04B
:1003B40000AF78600B46FB700523FB73FFF7A6FFC5
:1003C4007B681B78A22B02D10123FB7301E000237D
:1003D400FB73FFF7A6FF07F10F031A4601217220F2
:1003E40000F06AFB002318461037BD4680BD0000AC
:1003F40080B586B000AF78600B46FB70174A07F1F2
:100404000C0392E803001860043319800123FB7283
:10041400FFF77CFF00237B610FE07B697A6813445C
:100424001A7807F10C017B690B441B789A4201D0BE
:100434000023FB727B6901337B617B69042BECDD58
:10044400FFF76FFF07F10B031A460121722000F03A
:1004540033FB002318461837BD4680BDD436000848
:1004640080B584B000AF78600B46FB700120FFF7C5
:1004740033FF0020FFF716FF0023FB73FFF746FF4F
:10048400FFF74FFF00BFFB7BDBB2022BFBD1012048
:10049400FFF708FF0120FFF705FF0120FFF702FF28
:1004A4000120FFF7FFFE0120FFF7FCFE0120FFF70C
:1004B400F9FE0120FFF7F6FE0120FFF7F3FE01200D
:1004C400FFF7F0FE7220FFF7D7FE4220FFF7D4FEBD
:1004D4005220FFF7D1FE4520FFF7CEFE4120FFF763
:1004E400CBFE4B20FFF7C8FE4F20FFF7C5FE55207B
:1004F400FFF7C2FE5420FFF7BFFE0A20FFF7BCFE41
:100504000120FFF7CFFE0120FFF7CCFE0120FFF70B
:10051400C9FE0120FFF7C6FE0120FFF7C3FE01203C
:10052400FFF7C0FE0120FFF7BDFE0120FFF7BAFE72
:10053400002318461037BD4680BD000080B500AFCB
:1005440000F0BEFB00F038F800F088F8FFF746FE34
:100554007220FFF791FE5220FFF78EFE4520FFF731
:100564008BFE5320FFF788FE4520FFF785FE5420BD
:10057400FFF782FE0A20FFF77FFE0B4A0021672067
:1005840000F062F9094A0121632000F05DF9084A8C
:100594000521702000F058F9064A0021692000F076
:1005A40053F900F0A7F9FCE73D030008B103000884
:1005B400F50300086504000880B5A6B000AF07F194
:1005C400700328220021184603F06EF807F15C033B
:1005D40000221A605A609A60DA601A613B1D582240
:1005E4000021184603F060F802233B670123FB67F0
:1005F4001023C7F880300023C7F8883007F1700350
:10060400184600F04BFE0346002B01D000F07EF8A4
:100614000F23FB6500233B6600237B660023BB6638
:100624000023FB6607F15C030021184601F08AFEF3
:100634000346002B01D000F069F801237B600023FE
:10064400FB603B1D184602F0B3F80346002B01D0B3
:1006540000F05CF800BF9837BD4680BD80B588B017
:1006640000AF07F10C0300221A605A609A60DA6046
:100674001A61244B5B69234A43F400235361214BE1
:100684005B6903F40023BB60BB681E4B5B691D4AB6
:1006940043F4003353611B4B5B6903F400337B6009
:1006A4007B6800224FF4C041174800F0DFFD0022B0
:1006B4004FF480514FF0904000F0D8FD4FF4C04308
:1006C400FB6001233B6100237B610023BB6107F1D5
:1006D4000C0319460C4800F03FFC4FF48053FB60B8
:1006E40001233B6100237B610023BB6107F10C0301
:1006F40019464FF0904000F02FFC00BF2037BD4654
:1007040080BD00BF001002400008004880B400AF64
:1007140072B600BFFEE780B487B000AFF860B9607E
:100724007A6000237B6183E07B695B001A46BB68C7
:1007340013441B78FB747B695B000133BA68134470
:100744001B78BB74BB7C2F2B0AD9BB7C392B07D8F5
:100754007B697A681344BA7C303AD2B21A701DE0CD
:10076400BB7C402B0AD9BB7C462B07D87B697A68B3
:100774001344BA7C373AD2B21A700FE0BB7C602BB8
:100784000AD9BB7C662B07D87B697A681344BA7C88
:10079400573AD2B21A7001E001234FE0FB7C2F2BB1
:1007A40013D9FB7C392B10D87B697A6813441B78E6
:1007B4005AB2FB7C303B1B015BB2134359B27B69D9
:1007C4007A681344CAB21A702FE0FB7C402B13D909
:1007D400FB7C462B10D87B697A6813441B785AB289
:1007E400FB7C373B1B015BB2134359B27B697A68CC
:1007F4001344CAB21A7018E0FB7C602B13D9FB7C3B
:10080400662B10D87B697A6813441B785AB2FB7C38
:10081400573B1B015BB2134359B27B697A6813449B
:10082400CAB21A7001E0012308E07B6901337B61DD
:100834007A69FB689A42FFF677AF002318461C37A3
:10084400BD465DF8047B704780B584B000AF0346B5
:10085400B9607A60FB73F87B00237A68B96800F0AA
:1008640005F8034618461037BD4680BD80B485B0F0
:1008740000AFB9607A601A460346FB731346BB7334
:100884001A4B1B680F2B01DD012329E0BB68FF2BEA
:1008940001D9012324E0154B1B68154A1B0113449D
:1008A400FA7B1A70114B1B68114A1B011344043361
:1008B400BA681A600D4B1B680D4A1B0113440833B8
:1008C4007A681A60094B1B68094A1B0113440C33EC
:1008D400BA7B1A70054B1B680133044A136000236A
:1008E40018461437BD465DF8047B7047BC000020F1
:1008F400C000002080B5ADF5467D00AFFFF79EFC3B
:10090400034687F80F330023C7F814330EE0684A10
:10091400D7F814331B0113441B7897F80F239A421A
:100924000BD0D7F814330133C7F81433614B1B6869
:10093400D7F814239A42EADB00E000BF5D4B1B6842
:10094400D7F814239A4200F0A680594AD7F81433F2
:100954001B0113440C331B7803F00103002B2DD02F
:1009640007F54673A3F2113300221A70FFF766FCF1
:1009740003461A4607F54673A3F545731A70FFF745
:100984005DFC03461A4607F54673A3F545735A7092
:10099400FA1D3B1D19460120FFF7BDFE0346002B3F
:1009A4007BD107F54673A3F211331B781946404AED
:1009B400D7F814331B011344043319600023C7F818
:1009C40010331BE0FFF73AFC034687F80F3397F820
:1009D4000F330A2B63D097F80F330D2B5FD007F535
:1009E4004673A3F50372D7F81033134497F80F2313
:1009F4001A70D7F810330133C7F810332C4AD7F8DC
:100A040014331B01134404331B685A00D7F8103302
:100A14009A42D7D8FFF712FC034687F80F3397F8AA
:100A24000F330A2B03D097F80F330D2B39D1204AFB
:100A3400D7F814331B01134404331B68184607F119
:100A44000C0207F586731946FFF765FE0346002B73
:100A540029D1174AD7F814331B01134408331B68F0
:100A64001349D7F8142312010A4404321268D1B28C
:100A740007F10C021046984703461A4607F54673D9
:100A8400A3F544731A7007F108031A4601217A206A
:100A940000F012F808E000BF06E000BF04E000BF69
:100AA40002E000BF00E000BF07F54677BD4680BD09
:100AB400C0000020BC00002080B584B000AF034615
:100AC4003A60FB710B46BB71FB791846FFF7D4FB08
:100AD4000023FB6019E0FB683A6813441B781B0988
:100AE400DBB21A460E4B9B5C1846FFF7C5FBFB684E
:100AF4003A6813441B7803F00F03094AD35C184681
:100B0400FFF7BAFBFB680133FB60BB79FA689A42D2
:100B1400E1DB0A20FFF7B0FB00BF1037BD4680BD04
:100B24000000002080B483B000AF0F4B9B690E4AD5
:100B340043F0010393610C4B9B6903F001037B6059
:100B44007B68094BDB69084A43F08053D361064B49
:100B5400DB6903F080533B603B6800BF0C37BD4644
:100B64005DF8047B704700BF0010024080B58AB076
:100B740000AF786007F1140300221A605A609A608B
:100B8400DA601A617B681B68184A934229D1184BB2
:100B94009B69174A43F480439361154B9B6903F4A3
:100BA40080433B613B69124B5B69114A43F4003358
:100BB40053610F4B5B6903F40033FB60FB684FF434
:100BC400C0637B610223BB610023FB6103233B629F
:100BD40007237B6207F1140319464FF0904000F09D
:100BE400BBF900BF2837BD4680BD00BF00380140B7
:100BF4000010024080B400AFFEE780B400AFFEE70F
:100C040080B400AFFEE780B400AFFEE780B400AF6D
:100C1400FEE780B400AF00BFBD465DF8047B7047BB
:100C240080B400AF00BFBD465DF8047B704780B45C
:100C340000AF00BFBD465DF8047B704780B500AFD0
:100C440000F084F800BF80BD80B400AF064BD3F839
:100C54008830054A43F47003C2F8883000BFBD46AB
:100C64005DF8047B704700BF00ED00E0DFF834D08E
:100C74000D480E490E4A002302E0D458C4500433F0
:100C8400C4188C42F9D30B4A0B4C002301E01360C7
:100C94000432A242FBD3FFF7D7FF02F0E1FCFFF7D7
:100CA4004DFCFEE700000120000000201C00002095
:100CB4001C3700081C000020C4010020FEE70000CF
:100CC40080B500AF084B1B68074A43F0100313605C
:100CD400032000F00DF90F2000F008F8FFF722FFC1
:100CE4000023184680BD00BF0020024080B582B0BA
:100CF40000AF7860124B1A68124B1B7819464FF4F8
:100D04007A73B3FBF1F3B2FBF3F3184600F017F96F
:100D14000346002B01D001230EE07B680F2B0AD879
:100D2400002279684FF0FF3000F0EDF8064A7B6846
:100D34001360002300E0012318460837BD4680BD38
:100D440010000020180000201400002080B400AF20
:100D5400064B1B781A46064B1B681344044A13605F
:100D640000BFBD465DF8047B704700BF180000203B
:100D7400C001002080B400AF034B1B681846BD4679
:100D84005DF8047B704700BFC001002080B485B0CB
:100D940000AF78607B6803F00703FB600C4BDB68F3
:100DA400BB60BA684FF6FF031340BB60FB681A02CE
:100DB400BB68134343F0BF6343F40033BB60044A8E
:100DC400BB68D36000BF1437BD465DF8047B704731
:100DD40000ED00E080B400AF044BDB681B0A03F0B5
:100DE40007031846BD465DF8047B704700ED00E03C
:100DF40080B483B000AF03463960FB7197F90730C4
:100E0400002B0ADB3B68DAB20C4997F90730120170
:100E1400D2B20B4483F800230AE03B68DAB20849F3
:100E2400FB7903F00F03043B1201D2B20B441A7690
:100E340000BF0C37BD465DF8047B704700E100E05D
:100E440000ED00E080B489B000AFF860B9607A606A
:100E5400FB6803F00703FB61FB69C3F10703042B81
:100E640028BF0423BB61FB690433062B02D9FB6949
:100E7400033B00E000237B614FF0FF32BB6902FAC1
:100E840003F3DA43BB681A407B699A404FF0FF31A1
:100E94007B6901FA03F3D9437B680B40134318467B
:100EA4002437BD465DF8047B7047000080B582B0EE
:100EB40000AF78607B68013BB3F1807F01D30123ED
:100EC4000FE00A4A7B68013B53600F214FF0FF306B
:100ED400FFF78EFF054B00229A60044B07221A602D
:100EE400002318460837BD4680BD00BF10E000E06F
:100EF40080B582B000AF78607868FFF747FF00BF25
:100F04000837BD4680BD80B586B000AF0346B960E2
:100F14007A60FB7300237B61FFF75CFF78617A687A
:100F2400B9687869FFF78EFF024697F90F301146CA
:100F34001846FFF75DFF00BF1837BD4680BD80B57A
:100F440082B000AF78607868FFF7B0FF03461846B8
:100F54000837BD4680BD000080B487B000AF78601C
:100F6400396000237B6160E13B681A6801217B6979
:100F740001FA03F31340FB60FB68002B00F052817D
:100F84003B685B6803F00303012B05D03B685B6897
:100F940003F00303022B30D17B689B683B617B69C0
:100FA4005B00032202FA03F3DB433A6913403B611B
:100FB4003B68DA687B695B0002FA03F33A6913431E
:100FC4003B617B683A699A607B685B683B6101229C
:100FD4007B6902FA03F3DB433A6913403B613B68E4
:100FE4005B681B0903F001027B6902FA03F33A69A7
:100FF40013433B617B683A695A603B685B6803F062
:101004000303032B17D07B68DB683B617B695B00C0
:10101400032202FA03F3DB433A6913403B613B6862
:101024009A687B695B0002FA03F33A6913433B61F4
:101034007B683A69DA603B685B6803F00303022B60
:1010440023D17B69DA087B68083253F822303B618C
:101054007B6903F007039B000F2202FA03F3DB43CF
:101064003A6913403B613B681A697B6903F00703E3
:101074009B0002FA03F33A6913433B617B69DA0884
:101084007B680832396943F822107B681B683B612E
:101094007B695B00032202FA03F3DB433A691340E2
:1010A4003B613B685B6803F003027B695B0002FA07
:1010B40003F33A6913433B617B683A691A603B68FE
:1010C4005B6803F44033002B00F0AC805E4B9B69FB
:1010D4005D4A43F0010393615B4B9B6903F0010399
:1010E400BB60BB68594A7B699B08023352F82330C2
:1010F4003B617B6903F003039B000F2202FA03F3B5
:10110400DB433A6913403B617B68B3F1904F25D0D0
:101114007B684F4A93421FD07B684E4A934219D052
:101124007B684D4A934213D07B684C4A93420DD05E
:101134007B684B4A934207D07B684A4A934201D169
:1011440006230CE007230AE0052308E0042306E055
:10115400032304E0022302E0012300E000237A6970
:1011640002F00302920093403A6913433B6137490A
:101174007B699B0802333A6941F823203A4B1B6888
:101184003B61FB68DB433A6913403B613B685B6846
:1011940003F48033002B03D03A69FB6813433B61AB
:1011A400314A3B691360304B5B683B61FB68DB434E
:1011B4003A6913403B613B685B6803F40033002BDE
:1011C40003D03A69FB6813433B61274A3B69536088
:1011D400254B9B683B61FB68DB433A6913403B61E9
:1011E4003B685B6803F48013002B03D03A69FB6807
:1011F40013433B611C4A3B6993601B4BDB683B61B7
:10120400FB68DB433A6913403B613B685B6803F46A
:101214000013002B03D03A69FB6813433B61124A65
:101224003B69D3607B6901337B613B681A687B69E6
:1012340022FA03F3002B7FF497AE00BF00BF1C37E4
:10124400BD465DF8047B7047001002400000014079
:101254000004004800080048000C00480010004842
:1012640000140048001800480004014080B483B012
:1012740000AF78600B467B8013467B707B78002B35
:1012840003D07A887B689A6102E07A887B689A62E4
:1012940000BF0C37BD465DF8047B704780B5ADF5E3
:1012A400027D00AF07F50273A3F50173186007F51B
:1012B4000273A3F501731B68002B02D1012301F013
:1012C4003AB807F50273A3F501731B681B6803F0B2
:1012D4000103002B00F06F81B54B5B6803F00C0336
:1012E400042B0CD0B24B5B6803F00C03082B5CD1CD
:1012F400AF4B5B6803F4C033B3F5803F55D14FF473
:101304000033C7F8F431D7F8F43193FAA3F3C7F8EC
:10131400F031D7F8F031B3FA83F3DBB25B09DBB217
:1013240043F00103DBB2012B02D1A14B1B6815E092
:101334004FF40033C7F8EC31D7F8EC3193FAA3F348
:10134400C7F8E8314FF40033C7F8E431D7F8E43193
:1013540093FAA3F3C7F8E031954B5B6A4FF400327C
:10136400C7F8DC21D7F8DC2192FAA2F2C7F8D82119
:10137400D7F8D821B2FA82F2D2B242F02002D2B225
:1013840002F01F02012101FA02F21340002B00F0C7
:10139400118107F50273A3F501731B685B68002BC9
:1013A40040F00881012300F0C6BF07F50273A3F5DE
:1013B40001731B685B68B3F5803F06D17C4B1B68E7
:1013C4007B4A43F48033136036E007F50273A3F5D8
:1013D40001731B685B68002B0CD1754B1B68744A46
:1013E40023F480331360724B1B68714A23F4802307
:1013F400136021E007F50273A3F501731B685B68B2
:10140400B3F5A02F0CD16A4B1B68694A43F48023BF
:101414001360674B1B68664A43F4803313600BE028
:10142400634B1B68624A23F480331360604B1B6870
:101434005F4A23F48023136007F50273A3F5017355
:101444001B685B68002B59D0FFF794FCC7F80002B7
:101454000AE0FFF78FFC0246D7F80032D31A642B58
:1014640002D9032300F067BF4FF40033C7F8D43127
:10147400D7F8D43193FAA3F3C7F8D031D7F8D031E1
:10148400B3FA83F3DBB25B09DBB243F00103DBB2F3
:10149400012B02D1464B1B6815E04FF40033C7F80B
:1014A400CC31D7F8CC3193FAA3F3C7F8C8314FF451
:1014B4000033C7F8C431D7F8C43193FAA3F3C7F89B
:1014C400C0313B4B5B6A4FF40032C7F8BC21D7F8FC
:1014D400BC2192FAA2F2C7F8B821D7F8B821B2FA1F
:1014E40082F2D2B242F02002D2B202F01F020121F3
:1014F40001FA02F21340002BABD05CE0FFF73AFC98
:10150400C7F800020AE0FFF735FC0246D7F80032BC
:10151400D31A642B02D9032300F00DBF4FF4003318
:10152400C7F8B431D7F8B43193FAA3F3C7F8B0319C
:10153400D7F8B031B3FA83F3DBB25B09DBB243F023
:101544000103DBB2012B02D1194B1B6815E04FF4E8
:101554000033C7F8AC31D7F8AC3193FAA3F3C7F82A
:10156400A8314FF40033C7F8A431D7F8A43193FA63
:10157400A3F3C7F8A0310E4B5B6A4FF40032C7F8EF
:101584009C21D7F89C2192FAA2F2C7F89821D7F8A7
:101594009821B2FA82F2D2B242F02002D2B202F020
:1015A4001F02012101FA02F21340002BABD102E029
:1015B4000010024000BF07F50273A3F501731B6816
:1015C4001B6803F00203002B00F07F81A74B5B68CC
:1015D40003F00C03002B0CD0A44B5B6803F00C034A
:1015E400082B73D1A14B5B6803F4C033B3F5004FF0
:1015F4006CD10223C7F89431D7F8943193FAA3F34A
:10160400C7F89031D7F89031B3FA83F3DBB25B09B2
:10161400DBB243F00103DBB2012B02D1934B1B6815
:1016240013E00223C7F88C31D7F88C3193FAA3F373
:10163400C7F888310223C7F88431D7F8843193FA84
:10164400A3F3C7F88031894B5B6A0222C7F87C2177
:10165400D7F87C2192FAA2F2C7F87821D7F878213A
:10166400B2FA82F2D2B242F02002D2B202F01F02E7
:10167400012101FA02F21340002B0AD007F502738C
:10168400A3F501731B68DB68012B02D0012300F072
:1016940052BE764B1B6823F0F80207F50273A3F5DC
:1016A40001731B681B69F821C7F87411D7F874110A
:1016B40091FAA1F1C7F87011D7F87011B1FA81F15C
:1016C400C9B28B40694913430B60FEE007F502730E
:1016D400A3F501731B68DB68002B00F088800123ED
:1016E400C7F86C31D7F86C3193FAA3F3C7F86831B3
:1016F400D7F86831B3FA83F3DBB203F1845303F50B
:1017040084139B001A4601231360FFF733FBC7F8C9
:1017140000020AE0FFF72EFB0246D7F80032D31A84
:10172400022B02D9032300F006BE0223C7F864315A
:10173400D7F8643193FAA3F3C7F86031D7F860316E
:10174400B3FA83F3DBB25B09DBB243F00103DBB230
:10175400012B02D1454B1B6813E00223C7F85C310F
:10176400D7F85C3193FAA3F3C7F858310223C7F8CA
:101774005431D7F8543193FAA3F3C7F850313B4BA3
:101784005B6A0222C7F84C21D7F84C2192FAA2F2E4
:10179400C7F84821D7F84821B2FA82F2D2B242F00F
:1017A4002002D2B202F01F02012101FA02F2134018
:1017B400002BAFD02D4B1B6823F0F80207F5027302
:1017C400A3F501731B681B69F821C7F84411D7F806
:1017D400441191FAA1F1C7F84011D7F84011B1FAB8
:1017E40081F1C9B28B40214913430B606DE00123A1
:1017F400C7F83C31D7F83C3193FAA3F3C7F8383132
:10180400D7F83831B3FA83F3DBB203F1845303F529
:1018140084139B001A4600231360FFF7ABFAC7F842
:1018240000020AE0FFF7A6FA0246D7F80032D31AFC
:10183400022B02D9032300F07EBD0223C7F8343102
:10184400D7F8343193FAA3F3C7F83031D7F83031ED
:10185400B3FA83F3DBB25B09DBB243F00103DBB21F
:10186400012B05D1014B1B6816E000BF001002409C
:101874000223C7F82C31D7F82C3193FAA3F3C7F815
:1018840028310223C7F82431D7F8243193FAA3F37B
:10189400C7F82031BF4B5B6A0222C7F81C21D7F876
:1018A4001C2192FAA2F2C7F81821D7F81821B2FA2B
:1018B40082F2D2B242F02002D2B202F01F0201211F
:1018C40001FA02F21340002BACD107F50273A3F521
:1018D40001731B681B6803F00803002B00F01381DD
:1018E40007F50273A3F501731B685B69002B7CD0B9
:1018F4000123C7F81431D7F8143193FAA3F3C7F8C6
:101904001031D7F81031B3FA83F3DBB21A46A24B85
:1019140013449B001A4601231360FFF72BFAC7F800
:1019240000020AE0FFF726FA0246D7F80032D31A7B
:10193400022B02D9032300F0FEBC0223C7F80C31AA
:10194400D7F80C3193FAA3F207F50273A3F5807369
:101954001A6007F50273A3F5827302221A6007F571
:101964000273A3F582731B6893FAA3F207F502735B
:10197400A3F584731A6007F50273A3F58673022234
:101984001A6007F50273A3F586731B6893FAA3F232
:1019940007F50273A3F588731A607E4B5A6A07F53C
:1019A4000273A3F58A730221196007F50273A3F584
:1019B4008A731B6893FAA3F107F50273A3F58C737A
:1019C400196007F50273A3F58C731B68B3FA83F3EC
:1019D400DBB243F06003DBB203F01F03012101FA21
:1019E40003F31340002B9DD08DE007F50273A3F59C
:1019F4008E7301221A6007F50273A3F58E731B68B8
:101A040093FAA3F207F50273A3F590731A6007F52E
:101A14000273A3F590731B68B3FA83F3DBB21A461F
:101A24005D4B13449B001A4600231360FFF7A2F991
:101A3400C7F800020AE0FFF79DF90246D7F8003222
:101A4400D31A022B02D9032300F075BC07F50273E5
:101A5400A3F5927302221A6007F50273A3F5927339
:101A64001B6893FAA3F207F50273A3F594731A6043
:101A740007F50273A3F5967302221A6007F5027341
:101A8400A3F596731B6893FAA3F207F50273A3F503
:101A940098731A6007F50273A3F59A7302221A6009
:101AA40007F50273A3F59A731B6893FAA3F207F57B
:101AB4000273A3F59C731A60364B5A6A07F50273D6
:101AC400A3F59E730221196007F50273A3F59E73B3
:101AD4001B6893FAA3F107F50273A3F5A0731960C9
:101AE40007F50273A3F5A0731B68B3FA83F3DBB2A3
:101AF40043F06003DBB203F01F03012101FA03F397
:101B04001340002B97D107F50273A3F501731B68EB
:101B14001B6803F00403002B00F0A581002387F861
:101B240007321C4BDB6903F08053002B16D1194B91
:101B3400DB69184A43F08053D361164BDB6903F029
:101B4400805207F50273A3F5FE731A6007F502735A
:101B5400A3F5FE731B68012387F807320F4B1B683C
:101B640003F48073002B21D10C4B1B680B4A43F404
:101B740080731360FFF7FEF8C7F8000210E0FFF768
:101B8400F9F80246D7F80032D31A642B08D9032394
:101B9400D1E300BF0010024020819010007000408B
:101BA4008D4B1B6803F48073002BE8D007F5027398
:101BB400A3F501731B689B68012B06D1874B1B6A35
:101BC400864A43F00103136235E007F50273A3F577
:101BD40001731B689B68002B0CD1804B1B6A7F4AE6
:101BE40023F0010313627D4B1B6A7C4A23F0040338
:101BF400136220E007F50273A3F501731B689B6869
:101C0400052B0CD1754B1B6A744A43F00403136211
:101C1400724B1B6A714A43F0010313620BE06F4B72
:101C24001B6A6E4A23F0010313626C4B1B6A6B4AF6
:101C340023F00403136207F50273A3F501731B6811
:101C44009B68002B00F08180FFF794F8C7F800022E
:101C54000BE0FFF78FF80246D7F80032D31A41F2AF
:101C64008832934201D9032365E307F50273A3F590
:101C7400A27302221A6007F50273A3F5A2731B680C
:101C840093FAA3F207F50273A3F5A4731A6007F598
:101C94000273A3F5A67302221A6007F50273A3F573
:101CA400A6731B6893FAA3F207F50273A3F5A8734E
:101CB4001A6007F50273A3F5A8731B68B3FA83F3DC
:101CC400DBB25B09DBB243F00203DBB2022B02D1CD
:101CD400424B1B6A13E007F50273A3F5AA730222B1
:101CE4001A6007F50273A3F5AA731B6893FAA3F2AB
:101CF40007F50273A3F5AC731A60384B5B6A07F5FA
:101D04000272A2F5AE720221116007F50272A2F509
:101D1400AE72126892FAA2F107F50272A2F5B072DD
:101D2400116007F50272A2F5B0721268B2FA82F27B
:101D3400D2B242F04002D2B202F01F02012101FAF3
:101D440002F21340002B84D083E0FFF713F8C7F8A6
:101D540000020BE0FFF70EF80246D7F80032D31A60
:101D640041F28832934201D90323E4E207F5027376
:101D7400A3F5B27302221A6007F50273A3F5B273D6
:101D84001B6893FAA3F207F50273A3F5B4731A6000
:101D940007F50273A3F5B67302221A6007F50273FE
:101DA400A3F5B6731B6893FAA3F207F50273A3F5C0
:101DB400B8731A6007F50273A3F5B8731B68B3FA16
:101DC40083F3DBB25B09DBB243F00203DBB2022B29
:101DD40006D1024B1B6A17E000700040001002405D
:101DE40007F50273A3F5BA7302221A6007F50273AA
:101DF400A3F5BA731B6893FAA3F207F50273A3F56C
:101E0400BC731A60B34B5B6A07F50272A2F5BE722B
:101E14000221116007F50272A2F5BE72126892FAED
:101E2400A2F107F50272A2F5C072116007F5027201
:101E3400A2F5C0721268B2FA82F2D2B242F0400243
:101E4400D2B202F01F02012101FA02F21340002B68
:101E540080D197F80732012B05D19E4BDB699D4A4F
:101E640023F08053D36107F50273A3F501731B6854
:101E74009B69002B00F05E82964B5B6803F00C03B9
:101E8400082B00F01F8207F50273A3F501731B688A
:101E94009B69022B40F0708107F50273A3F5C273AE
:101EA4004FF080721A6007F50273A3F5C2731B68C2
:101EB40093FAA3F207F50273A3F5C4731A6007F546
:101EC4000273A3F5C4731B68B3FA83F3DBB203F1A3
:101ED400845303F584139B001A4600231360FEF712
:101EE40049FFC7F8000209E0FEF744FF0246D7F8AD
:101EF4000032D31A022B01D903231CE207F5027323
:101F0400A3F5C6734FF000721A6007F50273A3F5C8
:101F1400C6731B6893FAA3F207F50273A3F5C8739B
:101F24001A6007F50273A3F5C8731B68B3FA83F349
:101F3400DBB25B09DBB243F00103DBB2012B02D15C
:101F4400644B1B6827E007F50273A3F5CA734FF0CF
:101F540000721A6007F50273A3F5CA731B6893FA3B
:101F6400A3F207F50273A3F5CC731A6007F50273A5
:101F7400A3F5CE734FF000721A6007F50273A3F550
:101F8400CE731B6893FAA3F207F50273A3F5D0731B
:101F94001A60504B5B6A07F50272A2F5D2724FF0D9
:101FA4000071116007F50272A2F5D272126892FAFA
:101FB400A2F107F50272A2F5D472116007F502725C
:101FC400A2F5D4721268B2FA82F2D2B242F02002BE
:101FD400D2B202F01F02012101FA02F21340002BD7
:101FE40082D13C4BDB6A23F00F0207F50273A3F5A1
:101FF40001731B685B6A37491343CB62354B5B68DB
:1020040023F4761207F50273A3F501731B68196AAA
:1020140007F50273A3F501731B68DB690B432D49B4
:1020240013434B6007F50273A3F5D6734FF0807228
:102034001A6007F50273A3F5D6731B6893FAA3F22B
:1020440007F50273A3F5D8731A6007F50273A3F5B5
:10205400D8731B68B3FA83F3DBB203F1845303F53B
:1020640084139B001A4601231360FEF783FEC7F80E
:10207400000209E0FEF77EFE0246D7F80032D31ACA
:10208400022B01D9032356E107F50273A3F5DA7392
:102094004FF000721A6007F50273A3F5DA731B6838
:1020A40093FAA3F207F50273A3F5DC731A6007F53C
:1020B4000273A3F5DC731B68B3FA83F3DBB25B0929
:1020C400DBB243F00103DBB2012B05D1014B1B68EA
:1020D4002AE000BF0010024007F50273A3F5DE7387
:1020E4004FF000721A6007F50273A3F5DE731B68E4
:1020F40093FAA3F207F50273A3F5E0731A6007F5E8
:102104000273A3F5E2734FF000721A6007F50273CD
:10211400A3F5E2731B6893FAA3F207F50273A3F520
:10212400E4731A60864B5B6A07F50272A2F5E672E5
:102134004FF00071116007F50272A2F5E6721268A1
:1021440092FAA2F107F50272A2F5E872116007F59E
:102154000272A2F5E8721268B2FA82F2D2B242F0C6
:102164002002D2B202F01F02012101FA02F213404E
:10217400002B3FF47FAFDDE007F50273A3F5EA73AC
:102184004FF080721A6007F50273A3F5EA731B68B7
:1021940093FAA3F207F50273A3F5EC731A6007F53B
:1021A4000273A3F5EC731B68B3FA83F3DBB203F198
:1021B400845303F584139B001A4600231360FEF72F
:1021C400D9FDC7F8000209E0FEF7D4FD0246D7F8AE
:1021D4000032D31A022B01D90323ACE007F50273B2
:1021E400A3F5EE734FF000721A6007F50273A3F5BE
:1021F400EE731B6893FAA3F207F50273A3F5F07369
:102204001A6007F50273A3F5F0731B68B3FA83F33E
:10221400DBB25B09DBB243F00103DBB2012B02D179
:10222400474B1B6827E007F50273A3F5F2734FF0E1
:1022340000721A6007F50273A3F5F2731B6893FA30
:10224400A3F207F50273A3F5F4731A6007F502739A
:10225400A3F5F6734FF000721A6007F50273A3F545
:10226400F6731B6893FAA3F207F50273A3F5F873E8
:102274001A60334B5B6A07F50272A2F5FA724FF0EB
:102284000071116007F50272A2F5FA72126892FAEF
:10229400A2F107F50272A2F5FC72116007F5027251
:1022A400A2F5FC721268B2FA82F2D2B242F02002B3
:1022B400D2B202F01F02012101FA02F21340002BF4
:1022C40082D137E007F50273A3F501731B689B699C
:1022D400012B01D101232EE0194B5B68C7F8FC31B7
:1022E400174BDB6AC7F8F831D7F8FC3103F4C03276
:1022F40007F50273A3F501731B68DB699A4217D1D2
:10230400D7F8FC3103F4701207F50273A3F50173D7
:102314001B681B6A9A420BD1D7F8F83103F00F02FD
:1023240007F50273A3F501731B685B6A9A4201D037
:10233400012300E00023184607F50277BD4680BD5F
:102344000010024080B59EB000AF78603960002371
:102354007B677B68002B01D1012362E1904B1B68F2
:1023640003F007033A689A4210D98D4B1B6823F097
:1023740007028B493B6813430B60894B1B6803F0CE
:1023840007033A689A4201D001234AE17B681B683B
:1023940003F00203002B08D0824B5B6823F0F002A9
:1023A4007B689B687F4913434B607B681B6803F021
:1023B4000103002B00F0DC807B685B68012B3CD1BF
:1023C4004FF400333B673B6F93FAA3F3FB66FB6E5A
:1023D400B3FA83F3DBB25B09DBB243F00103DBB294
:1023E400012B02D16F4B1B680FE04FF40033BB6627
:1023F400BB6E93FAA3F37B664FF400333B663B6EEC
:1024040093FAA3F3FB65674B5B6A4FF40032BA653A
:10241400BA6D92FAA2F27A657A6DB2FA82F2D2B207
:1024240042F02002D2B202F01F02012101FA02F2AC
:102434001340002B7BD10123F3E07B685B68022B04
:102444003CD14FF000733B653B6D93FAA3F3FB64FF
:10245400FB6CB3FA83F3DBB25B09DBB243F0010339
:10246400DBB2012B02D14F4B1B680FE04FF000731E
:10247400BB64BB6C93FAA3F37B644FF000733B64BF
:102484003B6C93FAA3F3FB63464B5B6A4FF0007219
:10249400BA63BA6B92FAA2F27A637A6BB2FA82F2F4
:1024A400D2B242F02002D2B202F01F02012101FA9C
:1024B40002F21340002B3AD10123B2E002233B6322
:1024C4003B6B93FAA3F3FB62FB6AB3FA83F3DBB2CD
:1024D4005B09DBB243F00103DBB2012B02D1314BC8
:1024E4001B680DE00223BB62BB6A93FAA3F37B6211
:1024F40002233B623B6A93FAA3F3FB61294B5B6AB9
:102504000222BA61BA6992FAA2F27A617A69B2FADB
:1025140082F2D2B242F02002D2B202F01F020121B2
:1025240001FA02F21340002B01D1012379E01D4B83
:102534005B6823F003027B685B681A4913434B60B2
:10254400FEF718FC78670AE0FEF714FC02467B6F7E
:10255400D31A41F28832934201D9032361E0114B2B
:102564005B6803F00C027B685B689B009A42EBD1CA
:102574000B4B1B6803F007033A689A4214D2084BCA
:102584001B6823F0070206493B6813430B60044BA6
:102594001B6803F007033A689A4205D0012340E020
:1025A40000200240001002407B681B6803F0040313
:1025B400002B08D01D4B5B6823F4E0627B68DB686A
:1025C4001A4913434B607B681B6803F00803002B14
:1025D40009D0164B5B6823F460527B681B69DB00EF
:1025E400124913434B6000F029F801460F4B5B6816
:1025F40003F0F003F0223A613A6992FAA2F2FA6027
:10260400FA68B2FA82F2D2B2D340094AD35C21FA10
:1026140003F3084A1360084B1B681846FEF766FB71
:10262400002318467837BD4680BD00BF0010024025
:10263400DC360008100000201400002080B48BB0A9
:1026440000AF0023FB610023BB6100237B620023F6
:102654007B6100233B622A4B5B68FB61FB6903F0EF
:102664000C03042B02D0082B03D03FE0254B3B6224
:102674003FE0FB6903F470134FF47012BA60BA6858
:1026840092FAA2F27A607A68B2FA82F2D2B2D340B3
:102694001D4AD35C7B611A4BDB6A03F00F030F22E4
:1026A4003A613A6992FAA2F2FA60FA68B2FA82F2EC
:1026B400D2B2D340154AD35CBB61FB6903F48033C7
:1026C400002B08D00F4ABB69B2FBF3F27B6902FB13
:1026D40003F37B6207E00B4ABB69B2FBF3F27B694D
:1026E40002FB03F37B627B6A3B6202E0054B3B62C5
:1026F40000BF3B6A18462C37BD465DF8047B704723
:102704000010024000127A00F43600080437000872
:1027140080B400AF034B1B681846BD465DF8047BCC
:10272400704700BF1000002080B582B000AFFFF7F3
:10273400EFFF01460B4B5B6803F4E0634FF4E06288
:102744007A607A6892FAA2F23A603A68B2FA82F24D
:10275400D2B2D340044AD35C21FA03F318460837B3
:10276400BD4680BD00100240EC36000880B582B042
:1027740000AFFFF7CDFF01460B4B5B6803F46053DA
:102784004FF460527A607A6892FAA2F23A603A6838
:10279400B2FA82F2D2B2D340044AD35C21FA03F3F0
:1027A40018460837BD4680BD00100240EC360008CC
:1027B40080B592B000AF786000233B640023FB63D4
:1027C400002387F847307B681B6803F48033002BB1
:1027D40000F0D4804E4BDB6903F08053002B0ED104
:1027E4004B4BDB694A4A43F08053D361484BDB6966
:1027F40003F08053BB60BB68012387F84730454B27
:102804001B6803F48073002B18D1424B1B68414AA8
:1028140043F480731360FEF7ADFA386408E0FEF702
:10282400A9FA02463B6CD31A642B01D90323D6E1DF
:10283400384B1B6803F48073002BF0D0344B1B6AB5
:1028440003F44073FB63FB6B002B00F084807B6814
:102854005B6803F44073FA6B9A427CD02C4B1B6A7E
:1028640023F44073FB634FF480333B633B6B93FA75
:10287400A3F3FB62FB6AB3FA83F3DBB21A46264B7B
:1028840013449B001A46012313604FF48033BB6347
:10289400BB6B93FAA3F37B637B6BB3FA83F3DBB277
:1028A4001A461D4B13449B001A4600231360184A12
:1028B400FB6B1362FB6B03F00103002B4BD0FEF7A1
:1028C40059FA38640AE0FEF755FA02463B6CD31A0B
:1028D40041F28832934201D9032380E10223BB628F
:1028E400BB6A93FAA3F37B6202233B623B6A93FACB
:1028F400A3F3FB61FB69B3FA83F3DBB25B09DBB2DD
:1029040043F00203DBB2022B08D1014B1B6A0DE03A
:102914000010024000700040008190100223BB614F
:10292400BB6993FAA3F37B619A4B5B6A02223A6117
:102934003A6992FAA2F2FA60FA68B2FA82F2D2B270
:1029440042F04002D2B202F01F02012101FA02F267
:102954001340002BB7D08F4B1B6A23F440727B6863
:102964005B688C4913430B6297F84730012B05D100
:10297400884BDB69874A23F08053D3617B681B68EB
:1029840003F00103002B08D0824B1B6B23F00302DE
:102994007B689B687F4913430B637B681B6803F068
:1029A4000203002B08D07B4B1B6B23F440327B6863
:1029B400DB68784913430B637B681B6803F00403EB
:1029C400002B08D0734B1B6B23F440227B681B69DC
:1029D400704913430B637B681B6803F02003002BCF
:1029E40008D06C4B1B6B23F010027B68DB696949D0
:1029F40013430B637B681B6803F40033002B08D07C
:102A0400644B5B6823F480027B685B6D614913430C
:102A14004B607B681B6803F04003002B08D05D4BC0
:102A24001B6B23F020027B681B6A5A4913430B6318
:102A34007B681B6803F48023002B08D0554B1B6B69
:102A440023F040027B685B6A524913430B637B6843
:102A54001B6803F00803002B08D04E4B1B6B23F4B8
:102A640040127B685B694B4913430B637B681B68AB
:102A740003F01003002B08D0464B1B6B23F44002D9
:102A84007B689B69434913430B637B681B6803F4AE
:102A94000073002B08D03F4B5B6823F400027B6873
:102AA4001B6B3C4913434B607B681B6803F080033A
:102AB400002B08D0374BDB6A23F4F8727B689B6ADF
:102AC40034491343CB627B681B6803F48073002B87
:102AD40008D0304BDB6A23F478527B68DB6A2D49DB
:102AE4001343CB627B681B6803F48053002B08D02C
:102AF400284B1B6B23F480727B685B6B2549134363
:102B04000B637B681B6803F40053002B08D0214B34
:102B14001B6B23F400727B681B6C1E4913430B630D
:102B24007B681B6803F48013002B08D0194B1B6BC4
:102B340023F080727B689B6B164913430B637B689D
:102B44001B6803F40013002B08D0124B1B6B23F0FB
:102B540000727B68DB6B0F4913430B637B681B6854
:102B640003F48003002B08D00A4B1B6B23F4806210
:102B74007B685B6C074913430B637B681B6803F436
:102B84000003002B0CD0034B1B6B23F400627B6807
:102B940002E000BF001002409B6C134913430B6317
:102BA4007B681B6803F08073002B08D00E4B1B6BF3
:102BB40023F400527B68DB6C0B4913430B637B6883
:102BC4001B6803F00073002B08D0074B1B6B23F426
:102BD40000427B681B6D044913430B6300231846B2
:102BE4004837BD4680BD00BF0010024080B582B0AA
:102BF40000AF78607B68002B01D1012340E07B6843
:102C04009B6F002B06D17B68002283F874207868C0
:102C1400FDF7ACFF7B6824229A677B681B681A68FF
:102C24007B681B6822F001021A60786800F092F950
:102C34000346012B01D1012322E07B685B6A002B50
:102C440002D0786800F05CFB7B681B685A687B687C
:102C54001B6822F490425A607B681B689A687B6800
:102C64001B6822F02A029A607B681B681A687B68DA
:102C74001B6842F001021A60786800F0E3FB034627
:102C840018460837BD4680BD80B58AB002AFF860EB
:102C9400B9603B601346FB80FB689B6F202B40F0C0
:102CA4008280BB68002B02D0FB88002B01D101235A
:102CB4007AE0FB6893F87430012B01D1022373E0AE
:102CC400FB68012283F87420FB680022C3F880208B
:102CD400FB6821229A67FEF74DF87861FB68FA8851
:102CE400A3F85020FB68FA88A3F85220FB689B687D
:102CF400B3F5805F08D1FB681B69002B04D1002366
:102D0400FB61BB68BB6103E0BB68FB610023BB6183
:102D1400FB68002283F874202DE03B6800937B69F4
:102D240000228021F86800F0D6FB0346002B01D076
:102D3400032339E0FB69002B0BD1BB691A88FB68BC
:102D44001B68C2F3080292B21A85BB690233BB61E5
:102D540008E0FB691A78FB681B6892B21A85FB6964
:102D64000133FB61FB68B3F852309BB2013B9AB26A
:102D7400FB68A3F85220FB68B3F852309BB2002BD7
:102D8400CBD13B6800937B6900224021F86800F0B6
:102D9400A2FB0346002B01D0032305E0FB6820229D
:102DA4009A67002300E0022318462037BD4680BD01
:102DB40080B58AB002AFF860B9603B601346FB800F
:102DC400FB68DB6F202B40F0BF80BB68002B02D078
:102DD400FB88002B01D10123B7E0FB6893F8743022
:102DE400012B01D10223B0E0FB68012283F8742097
:102DF400FB680022C3F88020FB682222DA67FB68A4
:102E040000221A66FDF7B6FF7861FB68FA88A3F81A
:102E14005820FB68FA88A3F85A20FB689B68B3F52E
:102E2400805F0ED1FB681B69002B05D1FB6840F263
:102E3400FF12A3F85C202DE0FB68FF22A3F85C20BE
:102E440028E0FB689B68002B0DD1FB681B69002BF5
:102E540004D1FB68FF22A3F85C201BE0FB687F22FF
:102E6400A3F85C2016E0FB689B68B3F1805F0DD18A
:102E7400FB681B69002B04D1FB687F22A3F85C204C
:102E840008E0FB683F22A3F85C2003E0FB68002213
:102E9400A3F85C20FB68B3F85C307B82FB689B681A
:102EA400B3F5805F08D1FB681B69002B04D10023B4
:102EB400FB61BB68BB6103E0BB68FB610023BB61D2
:102EC400FB68002283F8742033E03B6800937B693D
:102ED40000222021F86800F0FEFA0346002B01D0FE
:102EE400032332E0FB69002B0CD1FB681B689B8C2D
:102EF4009AB27B8A13409AB2BB691A80BB690233C7
:102F0400BB610DE0FB681B689B8C9BB2DAB27B8AC9
:102F1400DBB21340DAB2FB691A70FB690133FB615F
:102F2400FB68B3F85A309BB2013B9AB2FB68A3F832
:102F34005A20FB68B3F85A309BB2002BC5D1FB680A
:102F44002022DA67002300E0022318462037BD461A
:102F540080BD000080B588B000AF78600023BB77E7
:102F64007B689A687B681B691A437B685B691A43B0
:102F74007B68DB6913437B617B681B681A68924B2F
:102F840013407A68126879690B4313607B681B6885
:102F94005B6823F440517B68DA687B681B680A43EA
:102FA4005A607B689B697B617B681B6A7A691343FF
:102FB4007B617B681B689B6823F430617B681B68BA
:102FC4007A690A439A607B681B68804A934220D1DD
:102FD4007F4B1B6B03F00303032B17D801A252F89A
:102FE40023F000BFF92F0008053000080B3000085B
:102FF400FF2F00080123FB77B5E00223FB77B2E043
:103004000423FB77AFE00823FB77ACE01023FB77C6
:10301400A9E07B681B686F4A934224D16C4B1B6BFD
:1030240003F44033B3F5403F11D0B3F5403F17D814
:10303400B3F5003F11D0B3F5003F11D8002B03D0F6
:10304400B3F5803F06D00BE00023FB778BE002232F
:10305400FB7788E00423FB7785E00823FB7782E095
:103064001023FB777FE07B681B685B4A934224D183
:10307400574B1B6B03F44023B3F5402F11D0B3F52A
:10308400402F17D8B3F5002F11D0B3F5002F11D866
:10309400002B03D0B3F5802F06D00BE00023FB7781
:1030A40061E00223FB775EE00423FB775BE0082307
:1030B400FB7758E01023FB7755E07B681B68474A91
:1030C400934224D1424B1B6B03F44013B3F5401FCE
:1030D40011D0B3F5401F17D8B3F5001F11D0B3F5C5
:1030E400001F11D8002B03D0B3F5801F06D00BE0CE
:1030F4000023FB7737E00223FB7734E00423FB77DC
:1031040031E00823FB772EE01023FB772BE07B686C
:103114001B68334A934224D12D4B1B6B03F44003A9
:10312400B3F5400F11D0B3F5400F17D8B3F5000F26
:1031340011D0B3F5000F11D8002B03D0B3F5800FD5
:1031440006D00BE00023FB770DE00223FB770AE0B7
:103154000423FB7707E00823FB7704E01023FB77C5
:1031640001E01023FB777B68DB69B3F5004F6CD17A
:10317400FB7F082B38D801A252F823F0A5310008B0
:10318400AD310008B5310008ED310008BB3100084D
:10319400ED310008ED310008ED310008C3310008BD
:1031A400FFF7C2FAB86124E0FFF7E0FAB86120E063
:1031B4000C4BBB611DE0FFF741FAB86119E04FF415
:1031C4000043BB6115E000BFF369FFEF0038014025
:1031D400001002400044004000480040004C004001
:1031E4000050004000127A000023BB610123BB772A
:1031F40000BFBB69002B75D0BB695A007B685B6854
:103204005B081A447B685B68B2FBF3F39BB23B61D7
:103214003B690F2B16D93B69B3F5803F12D23B694A
:103224009BB223F00F03FB813B695B089BB203F065
:1032340007039AB2FB891343FB817B681B68FA89F5
:10324400DA604FE00123BB774CE0FB7F082B28D8E2
:1032540001A252F823F000BF81320008893200082D
:1032640091320008A732000897320008A7320008FC
:10327400A7320008A73200089F320008FFF754FA6B
:10328400B86113E0FFF772FAB8610FE01B4BBB6142
:103294000CE0FFF7D3F9B86108E04FF40043BB61D9
:1032A40004E00023BB610123BB7700BFBB69002B93
:1032B40018D07B685B685A08BB691A447B685B68F2
:1032C400B2FBF3F39BB23B613B690F2B08D93B691B
:1032D400B3F5803F04D27B681B683A69DA6001E089
:1032E4000123BB777B6800225A667B6800229A66BA
:1032F400BB7F18462037BD4680BD00BF00127A0050
:1033040080B483B000AF78607B685B6A03F001032C
:10331400002B0AD07B681B685B6823F400317B6850
:103324009A6A7B681B680A435A607B685B6A03F08D
:103334000203002B0AD07B681B685B6823F480318E
:103344007B68DA6A7B681B680A435A607B685B6A3D
:1033540003F00403002B0AD07B681B685B6823F42A
:1033640080217B681A6B7B681B680A435A607B6800
:103374005B6A03F00803002B0AD07B681B685B6858
:1033840023F400417B685A6B7B681B680A435A60CC
:103394007B685B6A03F01003002B0AD07B681B6810
:1033A4009B6823F480517B689A6B7B681B680A4393
:1033B4009A607B685B6A03F02003002B0AD07B6869
:1033C4001B689B6823F400517B68DA6B7B681B687D
:1033D4000A439A607B685B6A03F04003002B1AD0AF
:1033E4007B681B685B6823F480117B681A6C7B68BC
:1033F4001B680A435A607B681B6CB3F5801F0AD1B3
:103404007B681B685B6823F4C0017B685A6C7B682B
:103414001B680A435A607B685B6A03F08003002BD5
:103424000AD07B681B685B6823F400217B689A6C74
:103434007B681B680A435A6000BF0C37BD465DF8C1
:10344400047B704780B586B002AF78607B68002249
:10345400C3F88020FDF78EFCF8607B681B681B684E
:1034640003F00803082B0ED16FF07E430093FB6832
:1034740000224FF40011786800F02DF80346002B69
:1034840001D0032323E07B681B681B6803F004035B
:10349400042B0ED16FF07E430093FB6800224FF49F
:1034A4008001786800F017F80346002B01D003234D
:1034B4000DE07B6820229A677B682022DA677B68AC
:1034C40000221A667B68002283F8742000231846C1
:1034D4001037BD4680BD80B59CB000AFF860B960C0
:1034E4003B601346FB71A5E0BB6FB3F1FF3F00F0F7
:1034F400A180FDF73FFC02463B68D31ABA6F9A429B
:1035040002D3BB6F002B3ED1FB681B683B653B6D50
:1035140053E8003FFB64FB6C23F4D0737B66FB68C9
:103524001B681A467B6EFB65BA65B96DFA6D41E896
:1035340000237B657B6D002BE6D1FB681B68083399
:10354400FB63FB6B53E8003FBB63BB6B23F00103DE
:103554003B66FB681B6808333A6EBA647B64796C1B
:10356400BA6C41E800233B643B6C002BE5D1FB685B
:1035740020229A67FB682022DA67FB68002283F81E
:103584007420032367E0FB681B681B6803F00403D3
:10359400002B4FD0FB681B68DB6903F40063B3F5B1
:1035A400006F47D1FB681B684FF400621A62FB6826
:1035B4001B68BB62BB6A53E8003F7B627B6A23F4EF
:1035C400D073FB66FB681B681A46FB6E7B633A6329
:1035D400396B7A6B41E80023FB62FB6A002BE6D16E
:1035E400FB681B6808337B617B6953E8003F3B61E0
:1035F4003B6923F00103BB66FB681B680833BA6EA2
:103604003A62FB61F9693A6A41E80023BB61BB692C
:10361400002BE5D1FB6820229A67FB682022DA6739
:10362400FB682022C3F88020FB68002283F8742002
:10363400032310E0FB681B68DA69BB681340BA68AF
:103644009A420CBF01230023DBB21A46FB799A424B
:103654003FF44AAF002318467037BD4680BD0000D2
:1036640070B50D4D0D4C641BA4100026A64209D163
:103674000B4D0C4C00F020F8641BA4100026A6424D
:1036840005D170BD55F8043B98470136EEE755F86F
:10369400043B98470136F2E7143700081437000852
:1036A400143700081837000802440346934200D137
:1036B400704703F8011BF9E7F8B500BFF8BC08BC74
:1036C4009E467047F8B500BFF8BC08BC9E467047DC
:1036D400746F7563680000000000000000000000C3
:1036E40001020304060708090000000001020304A4
:1036F40002030405060708090A0B0C0D0E0F10102F
:103704000102030405060708090A0B0C0D0E0F102D
:04371400B9010008EF
:04371800950100080F
:10371C0030313233343536373839414243444546FB
:0C372C0000127A001000000001000000F4
:0400000508000C7172
:00000001FF
